:100000000C9434000C9449000C9449000C94490061
:100010000C9449000C9449000C9449000C9449003C
:100020000C9449000C9449000C9449000C9449002C
:100030000C9449000C9449000C9449000C9449001C
:100040000C9449000C9449000C9449000C9449000C
:100050000C9449000C9449000C9449000C944900FC
:100060000C9449000C94490011241FBECFEFD8E036
:10007000DEBFCDBF11E0A0E0B1E0E8E4F7E002C0F0
:1000800005900D92AC33B107D9F70E9434010C945E
:10009000A2030C940000CF93DF93D82FC62F0E94A9
:1000A000CF0086EA0E94DB008D2F0E94DB008C2FA0
:1000B0000E94DB000E94D700DF91CF910895CF937B
:1000C000C82F0E94CF0086EA0E94DB008C2F0E947E
:1000D000DB000E94CF0087EA0E94DB000E94E5005F
:1000E000C82F0E94D7008C2FCF91089568E08DE231
:1000F0000E944B0068E081E30E944B0008959F92AC
:10010000AF92BF92CF92DF92EF92FF920F931F9325
:10011000CF93DF936C018B01EA0182E30E945F00C1
:10012000982E83E30E945F00A82E84E30E945F0064
:10013000B82E85E30E945F00F82E86E30E945F00E0
:10014000E82E87E30E945F002A2D30E0322F22271D
:100150002929F601318320832F2D30E0322F2227E9
:100160002B29F8013183208390E0982F88278E294E
:1001700099838883DF91CF911F910F91FF90EF902A
:10018000DF90CF90BF90AF909F9008951092B900EC
:1001900088E48093B80084E08093BC00089584EAEA
:1001A0008093BC008091BC008823E4F7089584E923
:1001B0008093BC0008958093BB0084E88093BC00CA
:1001C0008091BC008823E4F7089584E88093BC0004
:1001D0008091BC008823E4F78091BB00089580E4FF
:1001E00080937C00EAE7F0E087E880838081806488
:1001F000808380917A0086FDFCCF80917800909179
:100200007900089581E480937C00EAE7F0E087E8D4
:10021000808380818064808380917A0086FDFCCF1A
:10022000609178007091790080E090E00E949102E6
:1002300020E030EC4FE754E40E94E90120E030E494
:100240004CE955E40E941F030E94620280E090E0A6
:100250000E94910220E030E040E251E40E94E90176
:100260000E945B02CB010895AF92BF92CF92DF92C2
:10027000EF92FF921F93CF93DF9300D000D000D076
:10028000CDB7DEB780E090E00E948C037C0182E075
:1002900090E00E948C036C0184E090E00E948C034B
:1002A0005C0184B1806284B90E94C7010E94C600CB
:1002B0000E947600AE014B5F5F4FBE016D5F7F4FC6
:1002C000CE0101960E947F0029813A81C7014496A0
:1002D00082179307E4F0889728173907D4F02B8109
:1002E0003C81C601449682179307ACF08897281783
:1002F00039079CF02D813E81C501449682179307F2
:1003000074F088972817390764F010E00BC011E0EB
:1003100009C011E007C011E005C011E003C011E001
:1003200001C011E00E94EF00CD9708F41F5F0E940A
:10033000020186359105ACF4123029F486E291E091
:100340000E94DA0104C080E391E00E94DA012FEFFD
:1003500089E698E1215080409040E1F700C000001C
:10036000A9CF80E091E00E94DA0180E090E026963B
:100370000FB6F894DEBF0FBECDBFDF91CF911F91B6
:10038000FF90EF90DF90CF90BF90AF9008951092C4
:10039000C50087E68093C40088E18093C10086E0B1
:1003A0008093C20008959091C00095FFFCCF809388
:1003B000C6000895CF93DF93EC01892B21F406C08A
:1003C00021960E94D30188818111FACFDF91CF91CC
:1003D00008950E94FD010C94E5020E94DE0258F08F
:1003E0000E94D70240F029F45F3F29F00C94CE021E
:1003F00051110C9419030C94D4020E94F60268F374
:100400009923B1F3552391F3951B550BBB27AA27CD
:1004100062177307840738F09F5F5F4F220F331F07
:10042000441FAA1FA9F335D00E2E3AF0E0E832D0CF
:1004300091505040E695001CCAF72BD0FE2F29D0D2
:10044000660F771F881FBB1F261737074807AB07A4
:10045000B0E809F0BB0B802DBF01FF2793585F4F19
:100460003AF09E3F510578F00C94CE020C9419039B
:100470005F3FE4F3983ED4F3869577956795B795FB
:10048000F7959F5FC9F7880F911D9695879597F906
:100490000895E1E0660F771F881FBB1F621773077F
:1004A0008407BA0720F0621B730B840BBA0BEE1F94
:1004B00088F7E09508950E9462026894B1110C9447
:1004C000190308950E94FE0288F09F5798F0B92FF3
:1004D0009927B751B0F0E1F0660F771F881F991F79
:1004E0001AF0BA95C9F714C0B13091F00E94180300
:1004F000B1E008950C941803672F782F8827B85F10
:1005000039F0B93FCCF3869577956795B395D9F7D0
:100510003EF490958095709561957F4F8F4F9F4FDA
:100520000895E89409C097FB3EF4909580957095E6
:1005300061957F4F8F4F9F4F9923A9F0F92F96E92F
:10054000BB279395F695879577956795B795F111A4
:10055000F8CFFAF4BB0F11F460FF1BC06F5F7F4F41
:100560008F4F9F4F16C0882311F096E911C0772353
:1005700021F09EE8872F762F05C0662371F096E85C
:10058000862F70E060E02AF09A95660F771F881F2B
:10059000DAF7880F9695879597F9089597F99F67E9
:1005A00080E870E060E008959FEF80EC08950024FB
:1005B0000A941616170618060906089500240A94C8
:1005C00012161306140605060895092E0394000C4E
:1005D00011F4882352F0BB0F40F4BF2B11F460FFDD
:1005E00004C06F5F7F4F8F4F9F4F089557FD905806
:1005F000440F551F59F05F3F71F04795880F97FBE7
:10060000991F61F09F3F79F08795089512161306A0
:100610001406551FF2CF4695F1DF08C016161706CF
:100620001806991FF1CF8695710561050894089504
:10063000E894BB2766277727CB0197F908950E9496
:1006400032030C94E5020E94D70238F00E94DE02C9
:1006500020F0952311F00C94CE020C94D4021124B6
:100660000C9419030E94F60270F3959FC1F3950F45
:1006700050E0551F629FF001729FBB27F00DB11D26
:10068000639FAA27F00DB11DAA1F649F6627B00DB6
:10069000A11D661F829F2227B00DA11D621F739F9F
:1006A000B00DA11D621F839FA00D611D221F749FAD
:1006B0003327A00D611D231F849F600D211D822FF4
:1006C000762F6A2F11249F5750409AF0F1F088231B
:1006D0004AF0EE0FFF1FBB1F661F771F881F915048
:1006E0005040A9F79E3F510580F00C94CE020C9427
:1006F00019035F3FE4F3983ED4F3869577956795A9
:10070000B795F795E7959F5FC1F7FE2B880F911D71
:100710009695879597F90895A8E1B0E042E050E0FA
:100720000C949403DC01CB01FC01F999FECF06C0C7
:10073000F2BDE1BDF89A319600B40D92415050409F
:08074000B8F70895F894FFCF0B
:1007480054656D706572617475726520746F6F2081
:10075800686967682C2065786974696E6720636FBB
:1007680064652E2E2E00444F4F52204F50454E00A8
:0C077800444F4F5220434C4F5345440067
:00000001FF
