:107E00000C94343F0C943E3F0C943E3F0C943E3F08
:107E10000C943E3F0C943E3F0C943E3F0C943E3FEE
:107E20000C943E3F0C943E3F0C943E3F0C943E3FDE
:107E30000C943E3F0C943E3F0C943E3F0C943E3FCE
:107E40000C943E3F0C943E3F0C943E3F0C943E3FBE
:107E50000C943E3F0C943E3F0C943E3F0C943E3FAE
:107E60000C943E3F0C943E3F11241FBECFEFD8E050
:107E7000DEBFCDBF0E94403F0C94D03F0C94003F2A
:107E80001F92CDB7DEB714BE0FB6F894A8958091B7
:107E90006000886180936000109260000FBEF894CB
:107EA00084B1806284B980E00EC025B190E292274F
:107EB00095B92FEF31EE94E0215030409040E1F73A
:107EC00000C000008F5F8A3080F30E94933FBE01A4
:107ED0006F5F7F4F80ED97E00E949F3F882321F0E6
:107EE00089818A3A09F4FFCFE0E0F0E0859194912E
:107EF000019659F098E088E10FB6F894A895809320
:107F000060000FBE90936000FFCF95B180E289279B
:107F100085B93FEF89E698E1315080409040E1F724
:107F200000C00000F2CF1092C50087E68093C40025
:107F300088E18093C10086E08093C20008950F938A
:107F40001F93FB019C01A0E4B6E00E94C13F0BC05F
:107F50004091C000C901B80144232CF48091C600AF
:107F6000808381E00BC08B019C0101501109210924
:107F70003109672B682B692B59F780E01F910F910E
:107F80000895A29FB001B39FC001A39F700D811DF2
:107F90001124911DB29F700D811D1124911D089512
:047FA000F894FFCF83
:0400000300007E007B
:00000001FF
